:100B6E0048454C4C4F205354433839433532004995
:080B7E00542753204F4B2100C6
:10092000120B9A7BFF7A0B796E7D017F01120AEF21
:100930007BFF7A0B797D7D017F02120AEFE4F526B9
:10094000C3E5269464748094805016D2B77F0A7EE3
:1009500000120B86C2B77F0A7E00120B8605268026
:10096000DFE4F526C3E5269403748094805017E4F1
:10097000F5A07FC8FE120B8675A0FF7FC87E00120F
:100980000B86052680DEE4F526C3E52694037480F5
:0B099000948050A9120A9E052680EEFC
:100B8600EF4E600F7D027CC7DCFEDDFCEF1F70F0D0
:030B96001E80EDD1
:010B99002239
:060BAE00C2B68F80D2B434
:080BB4007F027EEFDEFEDFFC94
:010BBC002216
:0A0BBD00C2B5120BAEC2B4020BB4B5
:100B3200CFCDCFCECCCE12083F7C007D0A12083F2B
:040B4200ED2430FF6F
:0A0B4600D2B5120BAEC2B4020BB41C
:100B5000AE07EEFB7A0064017004ED148009EB64CB
:0E0B6000024A7009ED243F4480FF120BBD22B3
:100B9A007F38120BBD7F0C120BBD7F06120BBD7F77
:040BAA0001020BBD7C
:0A0BC700AC03120B50AF04020B4602
:060AEF008B278A288929EB
:100AF500120B50E4FDAB27AA28A9298D8275830026
:0C0B0500120800FF6006120B460D80E98C
:010B110022C1
:0A0A6D00EF24FFFDEE34FFFC7F0ACA
:080A77008E1E8F1F8C208D21C3
:100A7F007F017E00E4FBEBC39521E5206480F874D1
:0E0A8F008098500AAC1EAD1F12082D0B80E897
:010A9D002236
:040ACB008A118B12EF
:100ACF00120B50AA13EAFF7E00D394007480948017
:0F0ADF00400D120A6DAC11AD12120B321A80E6E7
:010AEE0022E5
:0409E6008B828A83F3
:1009EA00120B50C3E58364809480400D7F2B120B59
:1009FA004685830D85820E80107F2D120B46C3E437
:100A0A009582F50EE49583F50DAA0CEAFF7E00D3D4
:100A1A00940074809480400D120A6DAC0DAD0E12D4
:050A2A000B321A80E60A
:010A2F0022A4
:04099B008A168B1716
:10099F00120B50AA18EAD39400748094804037EA5F
:1009AF0024FFFDE434FFFC7F107E00120A77AC16A3
:1009BF00AD17CFCDCFCECCCE12083FEF540FFEC325
:1009CF00940A74809480EE5004243080022437FF00
:0609DF00120B461A80BF56
:0109E50022EF
:040A30008A1B8B1C76
:100A3400120B50AA1DEAFF7E00D3940074809480A8
:100A44004026EF24FFFDEE34FFFC7F02120A77AC50
:100A54001BAD1CCFCDCFCECCCE12083FEF5401241A
:080A640030FF120B461A80CD91
:010A6C002267
:100B120000C000F900A400B000990092008200F821
:100B2200008000900088008300C600A10086008E2D
:060BD100042200000000F8
:100A9E00E4F527C3E527941074809480501EE52753
:100AAE0025E02412F582E4340BF583E4740193F50A
:0C0ABE00807F2C7E01120B86052780D75C
:010ACA002209
:030000000208945F
:0C089400787FE4F6D8FD7581290208DBAE
:10080000BB010CE58229F582E5833AF583E02250AD
:1008100006E92582F8E622BBFE06E92582F8E222F7
:0D082000E58229F582E5833AF583E4932211
:10082D00EF8DF0A4A8F0CF8CF0A428CE8DF0A42EDF
:02083D00FE2299
:10083F00BC000BBE0029EF8DF084FFADF022E4CC9D
:10084F00F875F008EF2FFFEE33FEEC33FCEE9DEC66
:10085F00984005FCEE9DFE0FD5F0E9E4CEFD22EDAC
:10086F00F8F5F0EE8420D21CFEADF075F008EF2FF6
:10087F00FFED33FD4007985006D5F0F222C398FDE7
:05088F000FD5F0EA2284
:1008A000020920E493A3F8E493A34003F68001F245
:1008B00008DFF48029E493A3F85407240CC8C33359
:1008C000C4540F4420C8834004F456800146F6DF28
:1008D000E4800B0102040810204080900BD1E47EDC
:1008E000019360BCA3FF543F30E509541FFEE4931D
:1008F000A360010ECF54C025E060A840B8E493A3E4
:10090000FAE493A3F8E493A3C8C582C8CAC583CA0E
:10091000F0A3C8C582C8CAC583CADFE9DEE780BEC6
:010BD700001D
:00000001FF
